{
  "contractName": "BuyerSellerNotart024",
  "abi": [
    {
      "anonymous": false,
      "inputs": [
        {
          "indexed": false,
          "internalType": "uint256",
          "name": "recordId",
          "type": "uint256"
        }
      ],
      "name": "NewRecordCreated",
      "type": "event"
    },
    {
      "inputs": [
        {
          "internalType": "uint256",
          "name": "_data",
          "type": "uint256"
        }
      ],
      "name": "updateData",
      "outputs": [],
      "stateMutability": "nonpayable",
      "type": "function"
    },
    {
      "inputs": [],
      "name": "readData",
      "outputs": [
        {
          "internalType": "uint256",
          "name": "",
          "type": "uint256"
        }
      ],
      "stateMutability": "view",
      "type": "function"
    },
    {
      "inputs": [],
      "name": "submitAgreement024",
      "outputs": [
        {
          "internalType": "uint256",
          "name": "",
          "type": "uint256"
        }
      ],
      "stateMutability": "view",
      "type": "function"
    }
  ],
  "bytecode": "0x60806040526040518060a001604052806074815260200161037c6074913960009080519060200190610032929190610045565b5034801561003f57600080fd5b50610148565b82805461005190610117565b90600052602060002090601f01602090048101928261007357600085556100ba565b82601f1061008c57805160ff19168380011785556100ba565b828001600101855582156100ba579182015b828111156100b957825182559160200191906001019061009e565b5b5090506100c791906100cb565b5090565b5b808211156100e45760008160009055506001016100cc565b5090565b7f4e487b7100000000000000000000000000000000000000000000000000000000600052602260045260246000fd5b6000600282049050600182168061012f57607f821691505b602082108103610142576101416100e8565b5b50919050565b610225806101576000396000f3fe608060405234801561001057600080fd5b50600436106100415760003560e01c806309e96008146100465780633ab1352914610062578063bef55ef314610080575b600080fd5b610060600480360381019061005b9190610113565b61009e565b005b61006a6100a8565b604051610077919061014f565b60405180910390f35b6100886100ce565b604051610095919061014f565b60405180910390f35b8060078190555050565b600080600a9050600060109050600081836100c39190610199565b905080935050505090565b6000600754905090565b600080fd5b6000819050919050565b6100f0816100dd565b81146100fb57600080fd5b50565b60008135905061010d816100e7565b92915050565b600060208284031215610129576101286100d8565b5b6000610137848285016100fe565b91505092915050565b610149816100dd565b82525050565b60006020820190506101646000830184610140565b92915050565b7f4e487b7100000000000000000000000000000000000000000000000000000000600052601160045260246000fd5b60006101a4826100dd565b91506101af836100dd565b9250827fffffffffffffffffffffffffffffffffffffffffffffffffffffffffffffffff038211156101e4576101e361016a565b5b82820190509291505056fea264697066735822122002463ab6621f257c6c2d4c45d8b998614ef4a0420a3af84aed22f5d7f5dc674064736f6c634300080d0033546869732061677265656d656e742069732061626f7574207075726368617365206f662061204d6963726f736f6674205375726661636520626f6f6b2050726f2066726f6d207468652048616c696661782053686f7070696e672043656e746572206f6e204a756e652031342c20323032322e20",
  "immutableReferences": {},
  "source": "// Solidity program to demonstrate\n// function declaration\npragma solidity ^0.8.13;\n\n// Creating a contract\ncontract BuyerSellerNotart024 {\n    // This justifies the agreement that will be taken between the parties. In this case I am limiting the parties to two but it could be N in the number.\n    string agreement024 =\n        \"This agreement is about purchase of a Microsoft Surface book Pro from the Halifax Shopping Center on June 14, 2022. \";\n\n    // Hash of the string that this record is protecting\n    uint256 hash_agreement024;\n\n    // Store acknowledgment of this record by the party\n    mapping(address => bool) parties_approvals024;\n\n    // Store the timestamp of record creation\n    uint256 createdAt024;\n\n    // Record is valid if now < validUntil\n    uint256 validUntil024;\n\n    /*\n    Records counter, unique ID for every record\n*/\n    uint256 private currentId024;\n\n    // Indicate which address is party on this record\n    address[] parties;\n\n    event NewRecordCreated(uint256 recordId);\n\n    uint256 data;\n\n    function updateData(uint256 _data) external {\n        data = _data;\n    }\n\n    function readData() external view returns (uint256) {\n        return data;\n    }\n\n    modifier onlyParty(uint256 recordId) {\n        // Iterate over parties and check if there sender of the\n        // message is a party on this record\n        for (uint256 i = 0; i < parties.length; i++) {\n            if (parties[i] == msg.sender) {\n                _;\n                return;\n            }\n        }\n        // If sender is not party on this record, revert\n        revert();\n    }\n\n    // Defining function to calculate sum of 2 numbers\n    function submitAgreement024() public view returns (uint256) {\n        uint256 num1 = 10;\n        uint256 num2 = 16;\n        uint256 sum = num1 + num2;\n        return sum;\n    }\n}\n",
  "sourcePath": "/Users/ayush/Documents/University Assignments/Blockchain/Assignment_2/contracts/BuyerSellerNotary024.sol",
  "compiler": {
    "name": "solc",
    "version": "0.8.13+commit.abaa5c0e.Emscripten.clang"
  },
  "schemaVersion": "3.4.7",
  "updatedAt": "2022-05-21T17:33:41.678Z",
  "devdoc": {
    "kind": "dev",
    "methods": {},
    "version": 1
  },
  "userdoc": {
    "kind": "user",
    "methods": {},
    "version": 1
  }
}