{
  "contractName": "BuyerSellerNotary024",
  "abi": [
    {
      "anonymous": false,
      "inputs": [
        {
          "indexed": false,
          "internalType": "uint256",
          "name": "recordId",
          "type": "uint256"
        }
      ],
      "name": "NewRecordCreated",
      "type": "event"
    },
    {
      "inputs": [
        {
          "internalType": "uint256",
          "name": "_data",
          "type": "uint256"
        }
      ],
      "name": "updateData",
      "outputs": [],
      "stateMutability": "nonpayable",
      "type": "function"
    },
    {
      "inputs": [
        {
          "internalType": "uint256",
          "name": "_data",
          "type": "uint256"
        }
      ],
      "name": "submitAgreement_024",
      "outputs": [],
      "stateMutability": "nonpayable",
      "type": "function"
    },
    {
      "inputs": [
        {
          "internalType": "uint256",
          "name": "_data",
          "type": "uint256"
        }
      ],
      "name": "retrieveAgreement_024",
      "outputs": [],
      "stateMutability": "nonpayable",
      "type": "function"
    },
    {
      "inputs": [
        {
          "internalType": "uint256",
          "name": "_data",
          "type": "uint256"
        }
      ],
      "name": "approveAgreement_024",
      "outputs": [],
      "stateMutability": "nonpayable",
      "type": "function"
    },
    {
      "inputs": [],
      "name": "readData",
      "outputs": [
        {
          "internalType": "uint256",
          "name": "",
          "type": "uint256"
        }
      ],
      "stateMutability": "view",
      "type": "function",
      "constant": true
    },
    {
      "inputs": [],
      "name": "submitAgreement024",
      "outputs": [
        {
          "internalType": "uint256",
          "name": "",
          "type": "uint256"
        }
      ],
      "stateMutability": "view",
      "type": "function",
      "constant": true
    },
    {
      "inputs": [],
      "name": "retrieveAgreement024",
      "outputs": [
        {
          "internalType": "uint256",
          "name": "",
          "type": "uint256"
        }
      ],
      "stateMutability": "view",
      "type": "function",
      "constant": true
    },
    {
      "inputs": [],
      "name": "approveAgreement024",
      "outputs": [
        {
          "internalType": "uint256",
          "name": "",
          "type": "uint256"
        },
        {
          "internalType": "uint256",
          "name": "recordId",
          "type": "uint256"
        },
        {
          "internalType": "uint256",
          "name": "test_hash",
          "type": "uint256"
        }
      ],
      "stateMutability": "view",
      "type": "function",
      "constant": true
    }
  ],
  "bytecode": "0x60806040526040518060a00160405280607481526020016106aa6074913960009080519060200190610032929190610045565b5034801561003f57600080fd5b50610148565b82805461005190610117565b90600052602060002090601f01602090048101928261007357600085556100ba565b82601f1061008c57805160ff19168380011785556100ba565b828001600101855582156100ba579182015b828111156100b957825182559160200191906001019061009e565b5b5090506100c791906100cb565b5090565b5b808211156100e45760008160009055506001016100cc565b5090565b7f4e487b7100000000000000000000000000000000000000000000000000000000600052602260045260246000fd5b6000600282049050600182168061012f57607f821691505b602082108103610142576101416100e8565b5b50919050565b610553806101576000396000f3fe608060405234801561001057600080fd5b50600436106100885760003560e01c80637d25cdd41161005b5780637d25cdd414610103578063bef55ef31461011f578063c6f1c62a1461013d578063e1e794bd1461015957610088565b806309e960081461008d5780633ab13529146100a957806345274e41146100c75780636553da2a146100e3575b600080fd5b6100a760048036038101906100a291906103e9565b610177565b005b6100b1610181565b6040516100be9190610425565b60405180910390f35b6100e160048036038101906100dc91906103e9565b610242565b005b6100eb61024c565b6040516100fa93929190610440565b60405180910390f35b61011d600480360381019061011891906103e9565b610377565b005b610127610381565b6040516101349190610425565b60405180910390f35b610157600480360381019061015291906103e9565b61038b565b005b610161610395565b60405161016e9190610425565b60405180910390f35b8060078190555050565b60003373ffffffffffffffffffffffffffffffffffffffff1660066000815481106101af576101ae610477565b5b9060005260206000200160009054906101000a900473ffffffffffffffffffffffffffffffffffffffff1673ffffffffffffffffffffffffffffffffffffffff16036101fe576001905061023f565b600080fd5b81548152906001019060200180831161020357829003601f168201915050505050905060006001541461023a57600191505061023f565b600080fd5b90565b8060078190555050565b600080600080600090505b600680549050811015610312576000151560086000600684815481106102805761027f610477565b5b9060005260206000200160009054906101000a900473ffffffffffffffffffffffffffffffffffffffff1673ffffffffffffffffffffffffffffffffffffffff1673ffffffffffffffffffffffffffffffffffffffff16815260200190815260200160002060009054906101000a900460ff161515036102ff57600080fd5b808061030a906104d5565b915050610257565b50600154810361032c5761032461024c565b505050610331565b600080fd5b60005b60068054905081101561037157600060055414801561035557506000600754145b61035e57600080fd5b8080610369906104d5565b915050610334565b50909192565b8060078190555050565b6000600754905090565b8060078190555050565b600080600154146103aa5760015490506103ab565b5b90565b600080fd5b6000819050919050565b6103c6816103b3565b81146103d157600080fd5b50565b6000813590506103e3816103bd565b92915050565b6000602082840312156103ff576103fe6103ae565b5b600061040d848285016103d4565b91505092915050565b61041f816103b3565b82525050565b600060208201905061043a6000830184610416565b92915050565b60006060820190506104556000830186610416565b6104626020830185610416565b61046f6040830184610416565b949350505050565b7f4e487b7100000000000000000000000000000000000000000000000000000000600052603260045260246000fd5b7f4e487b7100000000000000000000000000000000000000000000000000000000600052601160045260246000fd5b60006104e0826103b3565b91507fffffffffffffffffffffffffffffffffffffffffffffffffffffffffffffffff8203610512576105116104a6565b5b60018201905091905056fea2646970667358221220d7c3ebfaf9c75ab515ab9e89417174e56d0252ec7a47aa24719039bad4cd343464736f6c634300080d0033546869732061677265656d656e742069732061626f7574207075726368617365206f662061204d6963726f736f6674205375726661636520626f6f6b2050726f2066726f6d207468652048616c696661782053686f7070696e672043656e746572206f6e204a756e652031342c20323032322e20",
  "immutableReferences": {},
  "source": "// Solidity program to demonstrate\n// function declaration\npragma solidity ^0.8.13;\n\n// Creating a contract\ncontract BuyerSellerNotary024 {\n    // This justifies the agreement that will be taken between the parties. In this case I am limiting the parties to two but it could be N in the number.\n    string agreement024 =\n        \"This agreement is about purchase of a Microsoft Surface book Pro from the Halifax Shopping Center on June 14, 2022. \";\n\n    // Hash of the string that this record is protecting\n    uint256 hash_agreement024;\n\n    // Store acknowledgment of this record by the party\n    mapping(address => bool) parties_approvals024;\n\n    // Store the timestamp of record creation\n    uint256 createdAt024;\n\n    // Record is valid if now < validUntil\n    uint256 validUntil024;\n\n    /*\n    Records counter, unique ID for every record\n*/\n    uint256 private currentId024;\n\n    // Indicate which address is party on this record\n    address[] parties;\n\n    event NewRecordCreated(uint256 recordId);\n\n    uint256 data;\n\n    function updateData(uint256 _data) external {\n        data = _data;\n    }\n    function submitAgreement_024(uint256 _data) external {\n        data = _data;\n    }\n    function retrieveAgreement_024(uint256 _data) external {\n        data = _data;\n    }\n    function approveAgreement_024(uint256 _data) external {\n        data = _data;\n    }\n\n\n    function readData() external view returns (uint256) {\n        return data;\n    }\n\n    modifier onlyParty(uint256 recordId) {\n        // Iterate over parties and check if there sender of the\n        // message is a party on this record\n        for (uint256 i = 0; i < parties.length; i++) {\n            if (parties[i] == msg.sender) {\n                _;\n                return;\n            }\n        }\n        // If sender is not party on this record, revert\n        revert();\n    }\n\n    // Defining function submit the agreement onto the main netwwork\n    function submitAgreement024() public view returns (uint256) {\n        // Verify that the msg sender is available in the network and we have access to the msg sender variable\n        if (parties[0] == msg.sender) {\n            return 1;\n        } else {\n            // If message sender is not found we have to revert the transaction.\n            revert();\n        }\n        /*\n        Only valid records can be accesed\n    */\n        bytes memory tempEmptyStringTest = bytes(agreement024);\n        if (hash_agreement024 != 0) {\n            return 1;\n            // Agreement found and is accurate to level of the requirements\n        } else {\n            revert();\n            // No agreement found on the network\n        }\n    }\n\n    function retrieveAgreement024() public view returns (uint256) {\n        if (hash_agreement024 != 0) {\n            return (hash_agreement024);\n        }\n    }\n\n    // Store acknowledgment of this record by the party\n    mapping(address => bool) parties_approvals;\n\n    function approveAgreement024()\n        public\n        view\n        returns (\n            uint256,\n            uint256 recordId,\n            uint256 test_hash\n        )\n    {\n        // Iterate over all parties associated with this record and check for\n        // their approval\n        for (uint256 i = 0; i < parties.length; i++) {\n            if (parties_approvals[parties[i]] == false) {\n                // If one of the parties didn't approve this record, revert\n                revert();\n            }\n        }\n\n        // Compare testing hash with the recorded hash\n        if (test_hash == hash_agreement024) {\n            approveAgreement024();\n        } else {\n            revert();\n        }\n        for (uint256 i = 0; i < parties.length; i++) {\n            if (currentId024 == 0 && data == 0) {\n                // If one of the parties didn't approve this record, revert\n            } else {\n                revert();\n            }\n        }\n    }\n}\n",
  "sourcePath": "/Users/ayush/Documents/University Assignments/Blockchain/Assignment_2/contracts/BuyerSellerNotary024.sol",
  "compiler": {
    "name": "solc",
    "version": "0.8.13+commit.abaa5c0e.Emscripten.clang"
  },
  "schemaVersion": "3.4.7",
  "updatedAt": "2022-05-21T23:44:12.158Z",
  "networkType": "ethereum",
  "devdoc": {
    "kind": "dev",
    "methods": {},
    "version": 1
  },
  "userdoc": {
    "kind": "user",
    "methods": {},
    "version": 1
  }
}