{
  "contractName": "BuyerSellerNotary024",
  "abi": [
    {
      "anonymous": false,
      "inputs": [
        {
          "indexed": false,
          "internalType": "uint256",
          "name": "recordId",
          "type": "uint256"
        }
      ],
      "name": "NewRecordCreated",
      "type": "event"
    },
    {
      "inputs": [
        {
          "internalType": "uint256",
          "name": "_data",
          "type": "uint256"
        }
      ],
      "name": "updateData",
      "outputs": [],
      "stateMutability": "nonpayable",
      "type": "function"
    },
    {
      "inputs": [],
      "name": "readData",
      "outputs": [
        {
          "internalType": "uint256",
          "name": "",
          "type": "uint256"
        }
      ],
      "stateMutability": "view",
      "type": "function"
    },
    {
      "inputs": [],
      "name": "submitAgreement024",
      "outputs": [
        {
          "internalType": "uint256",
          "name": "",
          "type": "uint256"
        }
      ],
      "stateMutability": "view",
      "type": "function"
    },
    {
      "inputs": [],
      "name": "retrieveAgreement024",
      "outputs": [
        {
          "internalType": "uint256",
          "name": "",
          "type": "uint256"
        }
      ],
      "stateMutability": "view",
      "type": "function"
    },
    {
      "inputs": [],
      "name": "approveAgreement024",
      "outputs": [
        {
          "internalType": "uint256",
          "name": "",
          "type": "uint256"
        },
        {
          "internalType": "uint256",
          "name": "recordId",
          "type": "uint256"
        },
        {
          "internalType": "uint256",
          "name": "test_hash",
          "type": "uint256"
        }
      ],
      "stateMutability": "view",
      "type": "function"
    }
  ],
  "bytecode": "0x60806040526040518060a00160405280607481526020016106076074913960009080519060200190610032929190610045565b5034801561003f57600080fd5b50610148565b82805461005190610117565b90600052602060002090601f01602090048101928261007357600085556100ba565b82601f1061008c57805160ff19168380011785556100ba565b828001600101855582156100ba579182015b828111156100b957825182559160200191906001019061009e565b5b5090506100c791906100cb565b5090565b5b808211156100e45760008160009055506001016100cc565b5090565b7f4e487b7100000000000000000000000000000000000000000000000000000000600052602260045260246000fd5b6000600282049050600182168061012f57607f821691505b602082108103610142576101416100e8565b5b50919050565b6104b0806101576000396000f3fe608060405234801561001057600080fd5b50600436106100575760003560e01c806309e960081461005c5780633ab13529146100785780636553da2a14610096578063bef55ef3146100b6578063e1e794bd146100d4575b600080fd5b61007660048036038101906100719190610346565b6100f2565b005b6100806100fc565b60405161008d9190610382565b60405180910390f35b61009e6101bd565b6040516100ad9392919061039d565b60405180910390f35b6100be6102e8565b6040516100cb9190610382565b60405180910390f35b6100dc6102f2565b6040516100e99190610382565b60405180910390f35b8060078190555050565b60003373ffffffffffffffffffffffffffffffffffffffff16600660008154811061012a576101296103d4565b5b9060005260206000200160009054906101000a900473ffffffffffffffffffffffffffffffffffffffff1673ffffffffffffffffffffffffffffffffffffffff160361017957600190506101ba565b600080fd5b81548152906001019060200180831161017e57829003601f16820191505050505090506000600154146101b55760019150506101ba565b600080fd5b90565b600080600080600090505b600680549050811015610283576000151560086000600684815481106101f1576101f06103d4565b5b9060005260206000200160009054906101000a900473ffffffffffffffffffffffffffffffffffffffff1673ffffffffffffffffffffffffffffffffffffffff1673ffffffffffffffffffffffffffffffffffffffff16815260200190815260200160002060009054906101000a900460ff1615150361027057600080fd5b808061027b90610432565b9150506101c8565b50600154810361029d576102956101bd565b5050506102a2565b600080fd5b60005b6006805490508110156102e25760006005541480156102c657506000600754145b6102cf57600080fd5b80806102da90610432565b9150506102a5565b50909192565b6000600754905090565b60008060015414610307576001549050610308565b5b90565b600080fd5b6000819050919050565b61032381610310565b811461032e57600080fd5b50565b6000813590506103408161031a565b92915050565b60006020828403121561035c5761035b61030b565b5b600061036a84828501610331565b91505092915050565b61037c81610310565b82525050565b60006020820190506103976000830184610373565b92915050565b60006060820190506103b26000830186610373565b6103bf6020830185610373565b6103cc6040830184610373565b949350505050565b7f4e487b7100000000000000000000000000000000000000000000000000000000600052603260045260246000fd5b7f4e487b7100000000000000000000000000000000000000000000000000000000600052601160045260246000fd5b600061043d82610310565b91507fffffffffffffffffffffffffffffffffffffffffffffffffffffffffffffffff820361046f5761046e610403565b5b60018201905091905056fea264697066735822122097737c7cd7d0d0317bc30ff1ccd20acee72fa7355e4dbcd24951d2e55945a21464736f6c634300080d0033546869732061677265656d656e742069732061626f7574207075726368617365206f662061204d6963726f736f6674205375726661636520626f6f6b2050726f2066726f6d207468652048616c696661782053686f7070696e672043656e746572206f6e204a756e652031342c20323032322e20",
  "immutableReferences": {},
  "source": "// Solidity program to demonstrate\n// function declaration\npragma solidity ^0.8.13;\n\n// Creating a contract\ncontract BuyerSellerNotary024 {\n    // This justifies the agreement that will be taken between the parties. In this case I am limiting the parties to two but it could be N in the number.\n    string agreement024 =\n        \"This agreement is about purchase of a Microsoft Surface book Pro from the Halifax Shopping Center on June 14, 2022. \";\n\n    // Hash of the string that this record is protecting\n    uint256 hash_agreement024;\n\n    // Store acknowledgment of this record by the party\n    mapping(address => bool) parties_approvals024;\n\n    // Store the timestamp of record creation\n    uint256 createdAt024;\n\n    // Record is valid if now < validUntil\n    uint256 validUntil024;\n\n    /*\n    Records counter, unique ID for every record\n*/\n    uint256 private currentId024;\n\n    // Indicate which address is party on this record\n    address[] parties;\n\n    event NewRecordCreated(uint256 recordId);\n\n    uint256 data;\n\n    function updateData(uint256 _data) external {\n        data = _data;\n    }\n\n    function readData() external view returns (uint256) {\n        return data;\n    }\n\n    modifier onlyParty(uint256 recordId) {\n        // Iterate over parties and check if there sender of the\n        // message is a party on this record\n        for (uint256 i = 0; i < parties.length; i++) {\n            if (parties[i] == msg.sender) {\n                _;\n                return;\n            }\n        }\n        // If sender is not party on this record, revert\n        revert();\n    }\n\n    // Defining function submit the agreement onto the main netwwork\n    function submitAgreement024() public view returns (uint256) {\n        // Verify that the msg sender is available in the network and we have access to the msg sender variable\n        if (parties[0] == msg.sender) {\n            return 1;\n        } else {\n            // If message sender is not found we have to revert the transaction.\n            revert();\n        }\n        /*\n        Only valid records can be accesed\n    */\n        bytes memory tempEmptyStringTest = bytes(agreement024);\n        if (hash_agreement024 != 0) {\n            return 1;\n            // Agreement found and is accurate to level of the requirements\n        } else {\n            revert();\n            // No agreement found on the network\n        }\n    }\n\n    function retrieveAgreement024() public view returns (uint256) {\n        if (hash_agreement024 != 0) {\n            return (hash_agreement024);\n        }\n    }\n\n    // Store acknowledgment of this record by the party\n    mapping(address => bool) parties_approvals;\n\n    function approveAgreement024()\n        public\n        view\n        returns (\n            uint256,\n            uint256 recordId,\n            uint256 test_hash\n        )\n    {\n        // Iterate over all parties associated with this record and check for\n        // their approval\n        for (uint256 i = 0; i < parties.length; i++) {\n            if (parties_approvals[parties[i]] == false) {\n                // If one of the parties didn't approve this record, revert\n                revert();\n            }\n        }\n\n        // Compare testing hash with the recorded hash\n        if (test_hash == hash_agreement024) {\n            approveAgreement024();\n        } else {\n            revert();\n        }\n        for (uint256 i = 0; i < parties.length; i++) {\n            if (currentId024 == 0 && data == 0) {\n                // If one of the parties didn't approve this record, revert\n            } else {\n                revert();\n            }\n        }\n    }\n}\n",
  "sourcePath": "/Users/ayush/Documents/University Assignments/Blockchain/Assignment_2/contracts/BuyerSellerNotary024.sol",
  "compiler": {
    "name": "solc",
    "version": "0.8.13+commit.abaa5c0e.Emscripten.clang"
  },
  "schemaVersion": "3.4.7",
  "updatedAt": "2022-05-21T21:41:12.562Z",
  "devdoc": {
    "kind": "dev",
    "methods": {},
    "version": 1
  },
  "userdoc": {
    "kind": "user",
    "methods": {},
    "version": 1
  }
}