{
  "contractName": "Notary",
  "abi": [
    {
      "inputs": [],
      "payable": false,
      "stateMutability": "nonpayable",
      "type": "constructor"
    },
    {
      "anonymous": false,
      "inputs": [
        {
          "indexed": false,
          "name": "recordId",
          "type": "uint256"
        }
      ],
      "name": "NewRecordCreated",
      "type": "event"
    },
    {
      "constant": false,
      "inputs": [
        {
          "name": "hash",
          "type": "uint256"
        },
        {
          "name": "_parties",
          "type": "address[]"
        }
      ],
      "name": "createRecord",
      "outputs": [
        {
          "name": "_recordId",
          "type": "uint256"
        }
      ],
      "payable": false,
      "stateMutability": "nonpayable",
      "type": "function"
    },
    {
      "constant": false,
      "inputs": [
        {
          "name": "recordId",
          "type": "uint256"
        }
      ],
      "name": "acceptRecord",
      "outputs": [],
      "payable": false,
      "stateMutability": "nonpayable",
      "type": "function"
    },
    {
      "constant": true,
      "inputs": [
        {
          "name": "recordId",
          "type": "uint256"
        }
      ],
      "name": "getRecordInfo",
      "outputs": [
        {
          "name": "",
          "type": "uint256"
        },
        {
          "name": "",
          "type": "uint256"
        }
      ],
      "payable": false,
      "stateMutability": "view",
      "type": "function"
    },
    {
      "constant": true,
      "inputs": [
        {
          "name": "recordId",
          "type": "uint256"
        }
      ],
      "name": "getParties",
      "outputs": [
        {
          "name": "",
          "type": "address[]"
        }
      ],
      "payable": false,
      "stateMutability": "view",
      "type": "function"
    },
    {
      "constant": false,
      "inputs": [
        {
          "name": "recordId",
          "type": "uint256"
        },
        {
          "name": "test_hash",
          "type": "uint256"
        }
      ],
      "name": "verify",
      "outputs": [
        {
          "name": "_res",
          "type": "bool"
        }
      ],
      "payable": false,
      "stateMutability": "nonpayable",
      "type": "function"
    }
  ],
  "bytecode": "0x6060604052341561000f57600080fd5b600060018190555061085e806100266000396000f30060606040526004361061006d576000357c0100000000000000000000000000000000000000000000000000000000900463ffffffff168063382ef4ea1461007257806341161b10146100b0578063447fe289146100f4578063610010711461016c5780636c2782f51461018f575b600080fd5b341561007d57600080fd5b61009360048080359060200190919050506101da565b604051808381526020018281526020019250505060405180910390f35b34156100bb57600080fd5b6100da6004808035906020019091908035906020019091905050610212565b604051808215151515815260200191505060405180910390f35b34156100ff57600080fd5b6101156004808035906020019091905050610412565b6040518080602001828103825283818151815260200191508051906020019060200280838360005b8381101561015857808201518184015260208101905061013d565b505050509050019250505060405180910390f35b341561017757600080fd5b61018d600480803590602001909190505061057c565b005b341561019a57600080fd5b6101c4600480803590602001909190803590602001908201803590602001919091929050506106d1565b6040518082815260200191505060405180910390f35b600080600080848152602001908152602001600020600301546000808581526020019081526020016000206004015491509150915091565b6000808360008090505b60008083815260200190815260200160002060010180549050811015610404573373ffffffffffffffffffffffffffffffffffffffff166000808481526020019081526020016000206001018281548110151561027557fe5b906000526020600020900160009054906101000a900473ffffffffffffffffffffffffffffffffffffffff1673ffffffffffffffffffffffffffffffffffffffff1614156103f757600092505b600080878152602001908152602001600020600101805490508310156103ad576000151560008088815260200190815260200160002060020160008060008a81526020019081526020016000206001018681548110151561031f57fe5b906000526020600020900160009054906101000a900473ffffffffffffffffffffffffffffffffffffffff1673ffffffffffffffffffffffffffffffffffffffff1673ffffffffffffffffffffffffffffffffffffffff16815260200190815260200160002060009054906101000a900460ff16151514156103a057600080fd5b82806001019350506102c2565b600080878152602001908152602001600020600001548514156103d357600193506103f2565b4260008088815260200190815260200160002060050181905550600093505b610409565b808060010191505061021c565b600080fd5b50505092915050565b61041a6107cd565b8160008090505b60008083815260200190815260200160002060010180549050811015610570573373ffffffffffffffffffffffffffffffffffffffff166000808481526020019081526020016000206001018281548110151561047a57fe5b906000526020600020900160009054906101000a900473ffffffffffffffffffffffffffffffffffffffff1673ffffffffffffffffffffffffffffffffffffffff1614156105635760008085815260200190815260200160002060010180548060200260200160405190810160405280929190818152602001828054801561055757602002820191906000526020600020905b8160009054906101000a900473ffffffffffffffffffffffffffffffffffffffff1673ffffffffffffffffffffffffffffffffffffffff168152602001906001019080831161050d575b50505050509250610575565b8080600101915050610421565b600080fd5b5050919050565b8060008090505b600080838152602001908152602001600020600101805490508110156106c7573373ffffffffffffffffffffffffffffffffffffffff16600080848152602001908152602001600020600101828154811015156105dc57fe5b906000526020600020900160009054906101000a900473ffffffffffffffffffffffffffffffffffffffff1673ffffffffffffffffffffffffffffffffffffffff1614156106ba578242600080838152602001908152602001600020600401541015151561064957600080fd5b600160008086815260200190815260200160002060020160003373ffffffffffffffffffffffffffffffffffffffff1673ffffffffffffffffffffffffffffffffffffffff16815260200190815260200160002060006101000a81548160ff021916908315150217905550506106cc565b8080600101915050610583565b600080fd5b505050565b600080600080600060015481526020019081526020016000209150858260000181905550610e1042018260040181905550600090505b848490508160ff1610156107b45781600101805480600101828161072b91906107e1565b9160005260206000209001600087878560ff16818110151561074957fe5b9050602002013573ffffffffffffffffffffffffffffffffffffffff16909190916101000a81548173ffffffffffffffffffffffffffffffffffffffff021916908373ffffffffffffffffffffffffffffffffffffffff160217905550508080600101915050610707565b6001549250600180540160018190555050509392505050565b602060405190810160405280600081525090565b81548183558181151161080857818360005260206000209182019101610807919061080d565b5b505050565b61082f91905b8082111561082b576000816000905550600101610813565b5090565b905600a165627a7a72305820d571e1968dcc97313c05a8454a86fbc2c3e2ff3f5776ed7bc631f2e48ee6a99f0029",
  "source": "/*\n    ----------------------------------------------------------------------------\n        Author: Andrijan Ostrun\n                April, 2018.\n                github.com/aostrun\n    ----------------------------------------------------------------------------\n\n\n    Smart Contract serving as Notary Public where you can protect an document\n    or a file in general by storing it's hash value on the Ethereum blockchain.\n\n    Every record besides file hash has parties associated with the record (can be\n    any number of parties) which can come handy if you are using this as a medium\n    to store real contracts.\n\n    Every party associated with the record has to accept it before the record becomes\n    valid. This stands as a protection for all parties involved.\n\n    Creation of new record starts with providing:\n        - Hash value of the file that is being protected (uint256)\n        - Parties associated with the record (address[])\n        - Unix Timestamp for record expiration (uint256)\n            -> current timestamp can be found at: https://www.unixtimestamp.com/\n\n        -> Creation of the record returns unique record ID that has to be remembered by parties\n            if they want to access that record ever again.\n\n    Example of record creation:\n        createRecord(2142131241, [\"address#1\", \"address#2\", \"address#3\"], 2523910141)\n\n    Parties accept record by calling function acceptRecord from their address.\n    Function takes record ID as an argument.\n\n    File can be verified by calling verify function. Function can be called only from\n    address that is party on particulat record. Function takes record ID and hash value that\n    we want to verify as arguments and returns boolean value, true if provided hash value\n    matches one on the record.\n\n*/\n\npragma solidity ^0.4.21;\n\ncontract Notary{\n\n    /*\n        Mapping holding the records\n    */\n    mapping( uint256 => Record ) private records;\n\n    /*\n        Records counter, unique ID for every record\n    */\n    uint256 private currentId;\n\n    struct Record{\n\n        // Hash of the file that this record is protecting\n        uint256 hash;\n\n        // Indicate which address is party on this record\n        address [] parties;\n\n        // Store acknowledgment of this record by the party\n        mapping( address => bool ) parties_approvals;\n\n        // Store the timestamp of record creation\n        uint256 createdAt;\n\n        // Record is valid if now < validUntil\n        uint256 validUntil;\n\n        // Guard against bruteforce attacks\n        uint256 lastFailedTest;\n\n    }\n\n    event NewRecordCreated(uint256 recordId);\n\n    /*\n        Only parties that are associated with the record can call function\n    */\n    modifier onlyParty(uint256 recordId){\n\n        // Iterate over parties and check if there sender of the\n        // message is a party on this record\n        for(uint i = 0; i < records[recordId].parties.length; i++){\n            if(records[recordId].parties[i] == msg.sender){\n                _;\n                return;\n            }\n        }\n        // If sender is not party on this record, revert\n        revert();\n    }\n\n    /*\n        Only valid records can be accesed\n    */\n    modifier onlyValid(uint256 recordId){\n        require(records[recordId].validUntil >= now);\n        _;\n    }\n\n\n    /*\n        Constructor, initialize record counter\n    */\n    function Notary() public{\n        currentId = 0;\n    }\n\n    /*\n        Create new record and add parties associated with this record and set its validity time\n        uint256 hash, address[] _parties, uint256 validUntil\n    */\n    function createRecord(uint256 hash, address[] _parties)\n    external\n    returns (uint256 _recordId)\n    {\n\n        // Limit max number of parties to 10\n\n        // Create new record\n        Record newRecord = records[currentId]; // = Record(0, new address[](0), new address[](0), 0, 0, 0);\n        newRecord.hash = hash;\n        newRecord.validUntil = now + 1 hours;\n\n        // Add parties and init values to true\n\n        // indicating that address is party on this record\n        for(uint8 i = 0; i < _parties.length; i++){\n            newRecord.parties.push(_parties[i]);\n            //newRecord.parties[_parties[i]] = true;\n        }\n\n        _recordId = currentId;\n        // Uncomment if you want to trigger event when new record is created\n        //emit NewRecordCreated(currentId);\n        currentId = currentId + 1;\n\n    }\n\n\n    /*\n        Every party associated with the record has to accept the record to make it valid.\n        Accepting the record is done by calling this function (acceptRecord) from the address of the\n        involved party.\n    */\n    function acceptRecord(uint256 recordId)\n    onlyParty(recordId)\n    onlyValid(recordId)\n    external\n    {\n\n\n        records[recordId].parties_approvals[msg.sender] = true;\n\n    }\n\n\n\n    // Return the record hash\n    function getRecordInfo(uint256 recordId)\n    external\n    constant\n    returns (uint256, uint256)\n    {\n        return (records[recordId].createdAt, records[recordId].validUntil);\n    }\n\n    function getParties(uint256 recordId)\n    onlyParty(recordId)\n    external\n    constant\n    returns (address[])\n    {\n        return records[recordId].parties;\n    }\n\n\n    // Checks if the given hash matches recorded hash\n    function verify(uint256 recordId, uint256 test_hash)\n    onlyParty(recordId)\n    external\n    returns (bool _res)\n    {\n        /*\n            Prevent bruteforce attacks, after every failed test\n            wait 30s before testing again.\n        */\n        //require(records[recordId].lastFailedTest + 30 seconds < now);\n\n        // Iterate over all parties associated with this record and check for\n        // their approval\n        for(uint i=0; i < records[recordId].parties.length; i++){\n            if (records[recordId].parties_approvals[ records[recordId].parties[i] ] == false){\n                // If one of the parties didn't approve this record, revert\n                revert();\n            }\n        }\n\n\n        // Compare testing hash with the recorded hash\n        if(test_hash == records[recordId].hash){\n            _res = true;\n        }else{\n            records[recordId].lastFailedTest = now;\n            _res = false;\n        }\n\n    }\n\n\n}",
  "sourcePath": "/Users/ayush/Documents/University Assignments/Blockchain/Assignment_2/contracts/BuyerSellerNotary024.sol",
  "compiler": {
    "name": "solc",
    "version": "0.4.21+commit.dfe3193c.Emscripten.clang"
  },
  "schemaVersion": "3.4.7",
  "updatedAt": "2022-05-21T15:27:01.760Z",
  "devdoc": {
    "methods": {}
  },
  "userdoc": {
    "methods": {}
  }
}